:1002780068735C004920616D20746F6F207361643E
:040288003E2D3C00CB
:1000970012028C7B277D017F011202E67BFF7A0229
:1000A70079787D037F01120240750C037B227A0762
:1000B7007D077F01120213750C047B227A077D0BE3
:1000C7007F01120115750C027BA57A007D017F0265
:1000D700120163750C087BA57A007D047F0212016B
:1000E700DC7BDF7D0D7F021202E67B437D0D7F0205
:1000F7001202E67BFF7A02797C7D037F01120240C0
:0E0107007F181202DC7FF47E0112026380F288
:0602B400C2A58F80D2A755
:0802BA007F027EC7DEFEDFFCBF
:0102C2002219
:0A02DC00C2A61202B4C2A70202BAC1
:0302C3002430FFE5
:0A02C600D2A61202B4C2A70202BAC7
:10028C007F381202DC7F0C1202DC7F061202DC7F4C
:04029C00010202DC7D
:0402A0008B828A8340
:1002A400EDBF0103148002243F4480FF1202DC22CC
:0A02E600AC031202A4AF040202C62A
:060240008B088A09890AFF
:100246001202A4E4FDAB08AA09A90A8D82758300EF
:0C025600120003FF60061202C60D80E9D2
:010262002279
:0C01A1007F0AEA24FFFDE434FFFC7E002E
:0801AD008E0F8F108C118D12D2
:1001B5007D017C00E4FBEBC39512E5116480F874C6
:1001C5008098500EAE0FAF10120030AC06AD070B85
:0601D50080E4AE04AF055A
:0101DB002201
:0B0213001202A0AA0CEAD394004021C4
:10021E001201A1AD07AC06AF82AE831200427C0084
:0E022E007D0A1200428C0D8D0EE50E1202C3E9
:03023C001A80D94C
:01023F00229C
:100115001202A4C3EA64809480400B7F2B1202C6AE
:100125008A838B82800E7F2D1202C6C3E49BF582E3
:0C013500E49AF583AA0CEAD39400402160
:100141001201A1AD07AC06AF82AE831200427C0062
:0E0151007D0A1200428C0D8D0EE50E1202C3C7
:03015F001A80D92A
:01016200227A
:0B0163001202A0AA0CEAD39400403264
:10016E007F101201A3AD07AC06AF82AE8312004220
:10017E00750D00EF540FF50EC3940AE50D648094CF
:0F018E0080E50E5004243080022437FF1202C691
:03019D001A80C8FD
:0101A000223C
:0B01DC001202A0AA0CEAD39400402BF2
:1001E700EA24FFFDE434FFFC7F027E001201ADAD7F
:1001F70007AC06AF82AE83120042750D00EF5401C3
:08020700F50E2430FF1202C6BF
:03020F001A80CF83
:0102120022C9
:10026300EF1FAC0670011E4C600A7D027CC7DCFEEA
:04027300DDFC80EC42
:010277002264
:030000000202D029
:0C02D000787FE4F6D8FD758112020097DB
:10000300BB010CE58229F582E5833AF583E02250B2
:1000130006E92582F8E622BBFE06E92582F8E222FC
:0D002300E58229F582E5833AF583E4932216
:10003000EF8DF0A4A8F0CF8CF0A428CE8DF0A42EE4
:02004000FE229E
:10004200BC000BBE0029EF8DF084FFADF022E4CCA2
:10005200F875F008EF2FFFEE33FEEC33FCEE9DEC6B
:10006200984005FCEE9DFE0FD5F0E9E4CEFD22EDB1
:10007200F8F5F0EE8420D21CFEADF075F008EF2FFB
:10008200FFED33FD4007985006D5F0F222C398FDEC
:050092000FD5F0EA2289
:00000001FF
