:10006D000000000000000000FF080808FF000E154A
:10007D00151508007E0102007E0102000E11110E01
:08008D00007D000000000000EE
:10000300E4F509F50AE4F508AF087E00E5082509DB
:1000130090006D93FD7C001200950508E508C394DC
:100023000840E5050AE50AD3940A40D9E4F50A0530
:0D00330009E509D3942040CDE4F50980C80B
:1000B700EF1FAC0670011E4C600A7D027CC7DCFE98
:0400C700DDFC80ECF0
:0100CB002212
:0500D800C2B6C2B52212
:02004000AD070A
:10004200E4FB74807E00A803088006CEA2E713CEEC
:1000520013D8F8FFEDF582EF558224FF92B4D2B6A1
:0A006200C2B60BBB08DCD2B5C2B574
:01006C002271
:10009500AA07AF05120040AF027480A807088002C6
:1000A500C313D8FCF4F5807F017E001200B775807C
:0200B500FF2228
:030000000200CC2F
:0C00CC00787FE4F6D8FD75810A0200037D
:00000001FF
