:100263007361766520737563636573730020202063
:10027300202020202020202020006C6F6164696EE4
:10028300672073756363657373002020202020202B
:0A0293002020202020202020200041
:0404FF00021EFFF2E8
:100003001204A2750C05AB1FAA1E7D017F01120409
:100013005A1202028F1DE51DB40115051FE51F705D
:1000230002051E750C05FBAA1E7D017F0112045AF1
:10003300E51DB40216E51F151F7002151E750C058C
:10004300AB1FAA1E7D017F0112045AE51D640370D4
:1000530040FCAD1FFF1203D77F057E0012048DE520
:100063001EFD7C007F011203D77F057E0012048DE5
:100073007BFF7A0279637D017F021203FB7FE87EB7
:100083000312048D7BFF7A0279707D017F021203D4
:10009300FBE51D64046003020014FF12037B751E5D
:1000A300008F1F7F0112037BEFFEEE421E750C05CE
:1000B300AB1FAA1E7D017F0112045A7BFF7A0279CE
:1000C3007D7D017F021203FB7FE87E0312048D7B9B
:0F00D300FF7A02798D7D017F021203FB02001478
:0604B600C2A58F80D2A751
:0804BC007F027EC7DEFEDFFCBB
:0104C4002215
:0A04D200C2A61204B6C2A70204BCC1
:10041E00CFCDCFCECCCE1201217C007D0A12012190
:04042E00ED2430FF8A
:0A043200D2A61204B6C2A70204BC51
:10047700AE07BE0104ED148006BE0209ED243F4419
:0604870080FF1204D222E6
:1004A2007F381204D27F0C1204D27F061204D27F4C
:0404B200010204D26D
:0A04DC00AC03120477AF04020432EF
:0603FB008B088A09890A43
:10040100120477E4FDAB08AA09A90A8D827583005D
:0C0411001200E2FF60061204320D80E9C8
:01041D0022BC
:0C0348007F0AEA24FFFDE434FFFC7E0085
:080354008E0D8F0E8C0F8D1031
:10035C007F017E00E4FBEBC39510E50F6480F8741D
:0E036C008098500AAC0DAD0E12010F0B80E808
:01037A002260
:04045A008A0A8B0B74
:10045E00120477AA0CEAD39400400D120348AC0A9A
:08046E00AD0B12041E1A80ED13
:010476002263
:10029D00120477C3EA64809480400B7F2B120432E2
:1002AD008A168B17800E7F2D120432C3E49BF5172F
:1002BD00E49AF516AA15EAD39400400D120348AC42
:0902CD0016AD1712041E1A80ED93
:0102D6002205
:0402D7008A1A8B1BD9
:1002DB00120477AA1CEAD3940040297F1012034A18
:1002EB00AC1AAD1BCFCDCFCECCCE120121EF540F1C
:1002FB00FEC3940AEE5004243080022437FF12040C
:04030B00321A80D151
:01030F0022CB
:040310008A238B248D
:10031400120477AA25EAD394004028EA24FFFDE4D6
:1003240034FFFC7F027E00120354AC23AD24CFCDF6
:10033400CFCECCCE120121EF54012430FF1204326F
:030344001A80D24A
:010347002293
:10048D00EF1FAC0670011E4C600A7D027CC7DCFEBE
:04049D00DDFC80EC16
:0104A1002238
:10020200E4F50820B1137F14FE12048D30B1FD7F96
:10021200147E0012048D75080120B0147F147E0034
:1002220012048D30B0FD7F147E0012048D75080219
:1002320020B2147F147E0012048D30B2FD7F147E32
:100242000012048D75080320B3147F147E0012047B
:100252008D30B3FD7F147E0012048D750804AF0843
:010262002279
:1003D7008F088C098D0A1204E67FA01203AE12045F
:1003E700C5AF081203AE1204C5AF0A1203AE12045A
:0403F700C50204F83F
:02037B008F08E9
:10037D001204E67FA01203AE1204C5AF081203AE3D
:10038D001204C51204E67FA11203AE1204C51204B5
:10039D003C7509008F0AD2001204EF1204F8AF0A5F
:0103AD00222D
:0904E600D2A0D2A1C2A0C2A12241
:0704F800C2A0D2A1D2A02294
:0203AE00AD0799
:1003B000E4FB74807E00A803088006CEA2E713CE7B
:1003C00013D8F8FFEDF582EF558224FF92A0D2A159
:0603D000C2A10BBB08DC1A
:0103D6002204
:10043C00E4FFD2A0FED2A130A00D7480A8060880E3
:0D044C0002C313D8FC4207C2A10EBE08E88F
:010459002280
:0904EF00A20092A0D2A1C2A12238
:0C04C500D2A0D2A1A2A09200C2A1A2006D
:0104D1002208
:0300000002017684
:0C017600787FE4F6D8FD7581250201BDFC
:1000E200BB010CE58229F582E5833AF583E02250D3
:1000F20006E92582F8E622BBFE06E92582F8E2221D
:0D010200E58229F582E5833AF583E4932236
:10010F00EF8DF0A4A8F0CF8CF0A428CE8DF0A42E04
:02011F00FE22BE
:10012100BC000BBE0029EF8DF084FFADF022E4CCC2
:10013100F875F008EF2FFFEE33FEEC33FCEE9DEC8B
:10014100984005FCEE9DFE0FD5F0E9E4CEFD22EDD1
:10015100F8F5F0EE8420D21CFEADF075F008EF2F1B
:10016100FFED33FD4007985006D5F0F222C398FD0C
:050171000FD5F0EA22A9
:10018200020003E493A3F8E493A34003F68001F290
:1001920008DFF48029E493A3F85407240CC8C3337E
:1001A200C4540F4420C8834004F456800146F6DF4D
:1001B200E4800B01020408102040809004FFE47EDA
:1001C200019360BCA3FF543F30E509541FFEE49342
:1001D200A360010ECF54C025E060A840B8E493A309
:1001E200FAE493A3F8E493A3C8C582C8CAC583CA34
:1001F200F0A3C8C582C8CAC583CADFE9DEE780BEEC
:0105030000F7
:00000001FF
