:100A2500543A0054483A00544C3A004F563A48005C
:0A0A35004F563A4C0020202020000C
:0400030002080000EF
:10046D00E4FF1208528F107F011208528F0AD3E554
:10047D0010648094FD5016C3E50A64809449400DC4
:10048D00D3E50A6480F8E510648098500675101461
:10049D00750A0A120AAD120A3F120ADD7FE87E03C1
:1004AD00120A987BFF7A0A79257D017F01120931A5
:1004BD007BFF7A0A79287D017F021209317BFF7A51
:1004CD000A792C7D097F02120931E510FB3395E085
:1004DD00FA7519037D037F0212076EE50AFB33954A
:1004ED00E0FA7519037D0C7F0212076E120B178F40
:1004FD000B120ADD1208B88F0F8E0E8D0D8C0CE4C9
:10050D00FFFEFDFCAB0FAA0EA90DA80C1201B450F5
:10051D001E7B2D7D037F01120AF4AF0FAE0EAD0DC4
:10052D00AC0C12022D8F148E138D128C118015852B
:10053D000F14850E13850D12850C117B2B7D037FFA
:10054D0001120AF4AF0FAE0EAD0DAC0C12027CAB66
:10055D0007AA067519037D047F011209CF7B2E7D35
:10056D00077F01120AF4E4FFFE7DC87C42AB14AA9A
:10057D0013A912A81112000E12027CE47B64FAF981
:10058D00F81203CD7519027D087F011209CFE50B15
:10059D00700302063AB4010E0510D3E51064809481
:1005AD00FD400375107DE50BB402111510C3E50A6E
:1005BD006480F8E51064809850020510E50BB403D3
:1005CD0011050AC3E5106480F8E50A6480984002BD
:1005DD00150AE50BB4040E150AC3E50A64809449A7
:1005ED005003750AC9E510FB3395E0FA7519037DC3
:1005FD00037F0212076EE50AFB3395E0FA751903C6
:10060D007D0C7F0212076EE510FD3395E0FCE4FFD3
:10061D0012090D7F057E00120A98E50AFD3395E05B
:10062D00FC7F0112090D7F057E00120A98AC10ECBB
:10063D00120248AB0FAA0EA90DA80C1201B4600A44
:10064D0040087BFF7A0A79308019AC0AEC12024817
:10065D00AB0FAA0EA90DA80C1201B450107BFF7A96
:10066D000A79357D0C7F011209310204F97BFF7A7D
:0D067D000A793A7D0C7F011209310204F95F
:03000B00020716D3
:10071600C0E0C0F0C083C082C0D075D000C000C0A9
:0D07260001C002C003C004C005C006C0072A
:10073300758A66758CFC0509E50970020508C39482
:1007430014E508940040097508007509001207A80C
:10075300D007D006D005D004D003D002D001D000FA
:0B076300D0D0D082D083D0F0D0E032A4
:10090D008F158C168D17120AFE7FA01208E4120A9D
:10091D00D0AF151208E4120AD0AF171208E4120A6C
:04092D00D0020B10D9
:020852008F1500
:10085400120AFE7FA01208E4120AD0AF151208E4AF
:10086400120AD0120AFE7FA11208E4120AD0120959
:10087400757516008F17D200120B07120B10AF17E5
:010884002251
:100A9800EF1FAC0670011E4C600A7D027CC7DCFEAD
:040AA800DDFC80EC05
:010AAC002227
:090AFE00D2A0D2A1C2A0C2A12223
:070B1000C2A0D2A1D2A02275
:0208E400AD075E
:1008E600E4FB74807E00A803088006CEA2E713CE40
:1008F60013D8F8FFEDF582EF558224FF92A0D2A11E
:06090600C2A10BBB08DCDE
:01090C0022C8
:10097500E4FFD2A0FED2A130A00D7480A8060880A5
:0D09850002C313D8FC4207C2A10EBE08E851
:010992002242
:090B0700A20092A0D2A1C2A12219
:0C0AD000D2A0D2A1A2A09200C2A1A2005C
:010ADC0022F7
:03000700012D00C8
:100A5600E4FF20B1010F20B0027F0220B2027F0323
:050A660020B3027F0433
:010A6B002268
:1007A800852B2C120A568F2BE52CB40107E52B70EC
:1007B80003752D01E52CB40207E52B7003752D0296
:1007C800E52CB40307E52B7003752D03E52CB40461
:0807D80007E52B7003752D04E9
:0107E00022F6
:050B1700AF2DE4F52DF7
:010B1C0022B6
:060AC100C2A58F80D2A740
:080AC7007F027EC7DEFEDFFCAA
:010ACF002204
:0A0AEA00C2A6120AC1C2A7020AC781
:10099300CFCDCFCECCCE12033C7C007D0A12033CDC
:0409A300ED2430FF10
:0A09A700D2A6120AC1C2A7020AC7B5
:100A6C00AE07BE0104ED148006BE0209ED243F441E
:060A7C0080FF120AEA22CD
:100AAD007F38120AEA7F0C120AEA7F06120AEA7FE1
:040ABD0001020AEA3E
:0A0AF400AC03120A6CAF040209A75C
:060931008B158A168917E0
:10093700120A6CE4FDAB15AA16A9178D8275830000
:0C0947001202FDFF60061209A70D80E9F6
:010953002281
:0C0885007F0AEA24FFFDE434FFFC7E0043
:080891008E1C8F1D8C1E8D1FB3
:100899007F017E00E4FBEBC3951FE51E6480F874BD
:0E08A9008098500AAC1CAD1D12032A0B80E88B
:0108B700221E
:0409CF008A178B18E0
:1009D300120A6CAA19EAD39400400D120885AC17C9
:0809E300AD181209931A80ED12
:0109EB0022E9
:10076E00120A6CC3EA64809480400B7F2B1209A797
:10077E008A1A8B1B800E7F2D1209A7C3E49BF51BD3
:10078E00E49AF51AAA19EAD39400400D120885AC22
:09079E001AAD1B1209931A80ED3B
:0107A700222F
:0407E1008A238B24B8
:1007E500120A6CAA25EAD3940040297F10120887C3
:1007F500AC23AD24CFCDCFCECCCE12033CEF540FDE
:10080500FEC3940AEE5004243080022437FF1209F7
:04081500A71A80D1CD
:0108190022BC
:04081A008A288B2974
:10081E00120A6CAA2AEAD394004028EA24FFFDE4C7
:10082E0034FFFC7F027E00120891AC28AD29CFCD9B
:10083E00CFCECCCE12033CEF54012430FF1209A7C9
:03084E001A80D23B
:010851002284
:0D0ADD001209B17FCC1209EC7F440209EC34
:1008B8001209B17FCC1209EC7FBE1209EC1209545F
:1008C8008F15120954EFFEE515FFFDAC06EC120278
:0B08D80043E4FBFA798078411201171D
:0108E30022F2
:1009B100C2AFD2B7C2B77FE3DFFED2B77F1DDFFE82
:0D09C100A2B7E433FE7FE3DFFED2AFAF0646
:0109CE002206
:100A8200C2AFC2B77E02DEFEEF24FF92B77E16DE51
:050A9200FED2B7D2AF57
:010A9700223C
:100A0900C2AFC2B77F02DFFED2B77F02DFFEA2B755
:0B0A1900E433FE7F16DFFED2AFAF0615
:010A240022AF
:0209EC00AD0755
:1009EE00C2AFE4FC7401A804088002C333D8FC5DD6
:0A09FE00FF120A820CBC08ECD2AF15
:010A080022CB
:10095400E4FDC2AFFC120A09EF600D7401A804089B
:100964008002C333D8FC42050CBC08E9D2AFAF0502
:010974002260
:100A3F005389F0438901C28DD28C758A66758CFCFF
:070A4F00D2A9D2AFC2B92207
:10000E00EC4D6011E8497017ED33EC3304600DE4EC
:10001E00FCFFFEFD22E933E8330470F80202E81219
:10002E0002B358046009E4CC24815006285009021A
:10003E0002F22840030202EFC0E0EB4A7044B9809E
:10004E0006D0E0FB0202DEEF4E701CBD8008EBFF17
:10005E00EAFEE9FD80EBE98DF0A4FEE5F00200F783
:10006E00E9CDF9EAFEEBFFEF89F0A4FCE5F0CE89CD
:10007E00F0A42EFFE435F0CD89F0A42DFEE435F08A
:10008E008067EF4E7005BD80D780C3EF8BF0A4ACB8
:10009E00F0EE8BF0A42CFCE435F0F8EF8AF0A42CF3
:1000AE00E5F038FCE433CB8DF0A42CFCE5F03BF806
:1000BE00EE8AF0A42CFCE5F038F8E433CF89F0A4F6
:1000CE002CFCE5F038CF3400CE89F0A42FFFE5F0FC
:1000DE003EFEE433C98DF0A42EFEE5F039CD8AF054
:1000EE00A42FFFE5F03EFEE43DFD33D0E0FB5007CC
:1000FE000BBB000F0202F2EC2CFCEF33FFEE33FED3
:06010E00ED33FD0202CA00
:100114000202F2EC5D046005E8590470030202E88F
:100124001202B3580460F6EC4860F2EC7004FDFE71
:10013400FF22C860DB2481C85009C39860025006BE
:100144000202EF9850CAF582E9294B4A7005AB8246
:100154000202DE75F0007C1A7880C3EF9BEE9AED04
:1001640099400DC3EF9BFFEE9AFEED99FDE842F036
:10017400DC23ACF0D0E0FFD0E0FED0E0FDAB822089
:10018400E7101BEB60BAEC2CFCEF33FFEE33FEED13
:1001940033FD0202CAE803F830E705C0F075F00049
:1001A400EF2FFFEE33FEED33FD40B830E7C280AAF7
:1001B40074F8CC6480CCC86480C8F58204604FC3F2
:1001C400EB9FF5F0EA9E42F0E99D42F0E89C45F091
:1001D400603C501DE5825FFFE582D313CB5BCBF41B
:1001E4002B5582FB50280ABA002409B90020088044
:1001F4001DE5825BFBE582D313CF5FCFF4C3132FDE
:100204005582FF50090EBE00050DBD00010CC3EB65
:100214009FF5F0EA9E42F0E99D42F0E89C45F060CB
:0902240007CC4820E701B3EC22ED
:10022D00ED33EC33600A047003BD8004ECB2E7FCDF
:01023D00229E
:10023E0075F020800E75F010800575F0087D007E3B
:10024E00007F003392D530D50312045FEC3340109B
:10025E00EF33FFEE33FEED33FDEC33FCD5F0ED2244
:0E026E00E5F0247EA2D513CC92E7CDCEFF2280
:10027C00EDD2E7CD33EC3392D524814006E4FFFE7A
:10028C00FDFC22FCE4CFCECDCC24E0501174FF80D9
:10029C00EDC3CC13CCCD13CDCE13CECF13CF047076
:0702AC00F030D5DE02045F13
:1002B300E9D2E7C933E833F892D5EDD2E7CD33EC91
:0702C30033FC5002B2D5220A
:1002CA00EC30E7100FBF000C0EBE00080DBD000495
:1002DA000BEB6014A2D5EB13FCED92E7FD2274FF41
:1002EA00FCFDFEFF22E480F8A2D574FF13FC7D809A
:0302FA00E480EFAE
:0300000002068A6B
:0C068A00787FE4F6D8FD75812D0206D1C2
:1002FD00BB010CE58229F582E5833AF583E02250B6
:10030D0006E92582F8E622BBFE06E92582F8E222FF
:0D031D00E58229F582E5833AF583E4932219
:10032A00EF8DF0A4A8F0CF8CF0A428CE8DF0A42EE7
:02033A00FE22A1
:10033C00BC000BBE0029EF8DF084FFADF022E4CCA5
:10034C00F875F008EF2FFFEE33FEEC33FCEE9DEC6E
:10035C00984005FCEE9DFE0FD5F0E9E4CEFD22EDB4
:10036C00F8F5F0EE8420D21CFEADF075F008EF2FFE
:10037C00FFED33FD4007985006D5F0F222C398FDEF
:05038C000FD5F0EA228C
:1003910075F008758200EF2FFFEE33FECD33CDCC23
:1003A10033CCC58233C5829BED9AEC99E5829840A6
:1003B1000CF582EE9BFEED9AFDEC99FC0FD5F0D683
:1003C100E4CEFBE4CDFAE4CCF9A88222B800C1B9AD
:1003D1000059BA002DEC8BF084CFCECDFCE5F0CBEB
:1003E100F97818EF2FFFEE33FEED33FDEC33FCEB24
:1003F10033FB10D703994004EB99FB0FD8E5E4F9DF
:10040100FA227818EF2FFFEE33FEED33FDEC33FCCB
:10041100C933C910D7059BE99A4007EC9BFCE99ABF
:10042100F90FD8E0E4C9FAE4CCFB2275F010EF2F04
:10043100FFEE33FEED33FDCC33CCC833C810D70704
:100441009BEC9AE899400AED9BFDEC9AFCE899F83F
:0E0451000FD5F0DAE4CDFBE4CCFAE4C8F922D2
:0E045F00C3E49FFFE49EFEE49DFDE49CFC22AE
:1006960002046DE493A3F8E493A34003F68001F209
:1006A60008DFF48029E493A3F85407240CC8C33365
:1006B600C4540F4420C8834004F456800146F6DF34
:1006C600E4800B0102040810204080900003E47EC1
:1006D600019360BCA3FF543F30E509541FFEE49329
:1006E600A360010ECF54C025E060A840B8E493A3F0
:1006F600FAE493A3F8E493A3C8C582C8CAC583CA1B
:10070600F0A3C8C582C8CAC583CADFE9DEE780BED2
:01000A0000F5
:00000001FF
