:10016C0000040004000416021602190618021904F1
:09017C001D04180C11021102000F
:10009A00204A270000F88CF8F3F95BF9B8FA15FA48
:1000AA0067FAB9FB04FB4BFB90FBCFFC10FC44FC4A
:1000BA0079FCACFCDCFD09FD34FD5CFD82FDA6FD8E
:1000CA00C8FDE8FE06FE22FE3DFE56FE6EFE85FED9
:1000DA009AFEAEFEC1FED3FEE4FEF4FF031D080D38
:1000EA00040D041404140416041604140812041249
:0C00FA0004110411040F040F040D08FF92
:10013B00120185E52590016C93FFF460208F260555
:10014B0025E5259375F07DA4FFAEF012019C0525E6
:10015B00C28C7F0A7E0012019CD28C80D6C28C800E
:01016B00FE95
:03000B00020107E8
:10010700C0E0C0D075D000C000C006E52625E024B9
:1001170027F8E6FE08E64E6012E52625E02427F8D4
:10012700E6FE08E6F58AEEF58CB2A5D006D000D03B
:04013700D0D0E03212
:10019C00EF1FAC0670011E4C600A7D027CC7DCFEB2
:0401AC00DDFC80EC0A
:0101B000222C
:100185005389F0438901C28DD28C758A66758CFCC2
:07019500D2A9D2AFC2B922CA
:0300000002000EED
:0C000E00787FE4F6D8FD75817002005583
:10001A0002013BE493A3F8E493A34003F68001F2C0
:10002A0008DFF48029E493A3F85407240CC8C333E7
:10003A00C4540F4420C8834004F456800146F6DFB6
:10004A00E4800B010204081020408090009AE47EAC
:10005A00019360BCA3FF543F30E509541FFEE493AB
:10006A00A360010ECF54C025E060A840B8E493A372
:10007A00FAE493A3F8E493A3C8C582C8CAC583CA9D
:10008A00F0A3C8C582C8CAC583CADFE9DEE780BE55
:0101060000F8
:00000001FF
