:030101000108FFF3
:0400E7007F147E0004
:1000EB00EF1FAC0670011E4C600B007D027CC7DC61
:0500FB00FEDDFC80EBBE
:0101000022DC
:10008F0020B1271200E730B1FD1200E70508C3E5E4
:10009F0008648094884003E4F508AF087401A8074A
:1000AF00088002C333D8FCF4F5A020B0D31200E7C8
:1000BF0030B0FD1200E7D3E50864809480500575D9
:1000CF00080780021508AF087401A807088002C34B
:0800DF0033D8FCF4F5A080A861
:03000000020003F8
:0C000300787FE4F6D8FD75810802004A01
:10000F0002008FE493A3F8E493A34003F68001F278
:10001F0008DFF48029E493A3F85407240CC8C333F2
:10002F00C4540F4420C8834004F456800146F6DFC1
:10003F00E4800B0102040810204080900101E47E4F
:10004F00019360BCA3FF543F30E509541FFEE493B6
:10005F00A360010ECF54C025E060A840B8E493A37D
:10006F00FAE493A3F8E493A3C8C582C8CAC583CAA8
:10007F00F0A3C8C582C8CAC583CADFE9DEE780BE60
:0101040000FA
:00000001FF
