:1004E30050617373776F72643A004F4B200045522B
:0204F3005200B5
:08051800021400000211092980
:10018C001204CF7BFF7A0479E37D017F01120446D0
:10019C001200038F13E5136045D3940A5040C3E556
:1001AC00159404E514940050350515E515700205F9
:1001BC0014AE16AF177C007D0A1202758E168F17BF
:1001CC00E51375F00A84E5F02517F517E43516F5F7
:1001DC0016750C04AB17FA7D017F02120487E51328
:1001EC00640B7036E517B5120DE516B511087BFFDB
:1001FC007A0479ED80067BFF7A0479F17D0E7F011C
:10020C00120446E4F516F517F514F515750C04AB48
:10021C0017AA167D017F02120487E513640C600394
:10022C0002019CF516F517F514F515750C04AB17B2
:0C023C00AA167D017F0212048702019CBB
:1004BA00EF1FAC0670011E4C600A7D027CC7DCFE91
:0404CA00DDFC80ECE9
:0104CE00220B
:0604F500C2A58F80D2A712
:0804FB007F027EEFDEFEDFFC54
:0105030022D5
:0A050400C2A61204F5C2A70204FB10
:10046900CFCDCFCECCCE1202877C007D0A12028777
:04047900ED2430FF3F
:0A047D00D2A61204F5C2A70204FB88
:1004A400AE07BE0104ED148006BE0209ED243F44EC
:0604B40080FF1205042286
:1004CF007F381205047F0C1205047F061205047F86
:0404DF00010205040D
:0A050E00AC031204A4AF0402047D44
:060446008B088A09890AF7
:10044C001204A4E4FDAB08AA09A90A8D82758300E5
:0C045C00120248FF600612047D0D80E9CA
:010468002271
:0C0413007F0AEA24FFFDE434FFFC7E00B9
:08041F008E0D8F0E8C0F8D1065
:100427007F017E00E4FBEBC39510E50F6480F87451
:0E0437008098500AAC0DAD0E1202750B80E8D5
:010445002294
:040487008A0A8B0B47
:10048B001204A4AA0CEAD39400400D120413AC0A74
:08049B00AD0B1204691A80ED9B
:0104A3002236
:100368001204A4C3EA64809480400B7F2B12047D9E
:100378008A1D8B1E800E7F2D12047DC3E49BF51E03
:10038800E49AF51DAA1CEAD39400400D120413AC9C
:090398001DAD1E1204691A80ED6E
:0103A1002239
:0403A2008A218B22FF
:1003A6001204A4AA23EAD3940040297F101204154C
:1003B600AC21AD22CFCDCFCECCCE120287EF540FDB
:1003C600FEC3940AEE5004243080022437FF120440
:0403D6007D1A80D13B
:0103DA002200
:0403DB008A268B27BC
:1003DF001204A4AA28EAD394004028EA24FFFDE4DB
:1003EF0034FFFC7F027E0012041FAC26AD27CFCD59
:1003FF00CFCECCCE120287EF54012430FF12047DF2
:03040F001A80D27E
:0104120022C7
:10000300E4F5087590FFC2932097137F14FE120442
:10001300BA3097FD7F147E001204BA75080120964A
:10002300147F147E001204BA3096FD7F147E0012F2
:1000330004BA7508052095147F147E001204BA30A3
:1000430095FD7F147E001204BA7508092094147F6D
:10005300147E001204BA3094FD7F147E001204BA99
:1000630075080D7590FFC2922097147F147E0012BD
:1000730004BA3097FD7F147E001204BA750802207B
:1000830096147F147E001204BA3096FD7F147E000E
:100093001204BA7508062095147F147E001204BA60
:1000A3003095FD7F147E001204BA75080A2094145B
:1000B3007F147E001204BA3094FD7F147E00120474
:1000C300BA75080E7590FFC2912097147F147E00B5
:1000D3001204BA3097FD7F147E001204BA75080328
:1000E3002096147F147E001204BA3096FD7F147E8E
:1000F300001204BA7508072095147F147E001204B9
:10010300BA3095FD7F147E001204BA75080B209453
:10011300147F147E001204BA3094FD7F147E001203
:1001230004BA75080F7590FFC2902097147F147E50
:10013300001204BA3097FD7F147E001204BA7508CA
:10014300042096147F147E001204BA3096FD7F14A7
:100153007E001204BA7508082095147F147E0012DD
:1001630004BA3095FD7F147E001204BA75080C2082
:1001730094147F147E001204BA3094FD7F147E0021
:080183001204BA750810AF0860
:01018B002251
:030000000202DC1D
:0C02DC00787FE4F6D8FD7581280203232A
:10024800BB010CE58229F582E5833AF583E022506B
:1002580006E92582F8E622BBFE06E92582F8E222B5
:0D026800E58229F582E5833AF583E49322CF
:10027500EF8DF0A4A8F0CF8CF0A428CE8DF0A42E9D
:02028500FE2257
:10028700BC000BBE0029EF8DF084FFADF022E4CC5B
:10029700F875F008EF2FFFEE33FEEC33FCEE9DEC24
:1002A700984005FCEE9DFE0FD5F0E9E4CEFD22ED6A
:1002B700F8F5F0EE8420D21CFEADF075F008EF2FB4
:1002C700FFED33FD4007985006D5F0F222C398FDA5
:0502D7000FD5F0EA2242
:1002E80002018CE493A3F8E493A34003F68001F29F
:1002F80008DFF48029E493A3F85407240CC8C33317
:10030800C4540F4420C8834004F456800146F6DFE5
:10031800E4800B0102040810204080900518E47E58
:10032800019360BCA3FF543F30E509541FFEE493DA
:10033800A360010ECF54C025E060A840B8E493A3A1
:10034800FAE493A3F8E493A3C8C582C8CAC583CACC
:10035800F0A3C8C582C8CAC583CADFE9DEE780BE84
:0105200000DA
:00000001FF
