:1009830020200020202D20202D20200020203A2070
:05099300203A202000C5
:0709C1000115000211000006
:10061500120595E519FB3395E0FA750C027D017F0E
:1006250001120939E51AFB3395E0FA750C027D04D0
:100635007F01120939E51BFB3395E0FA750C027D44
:10064500077F01120939E51CFB3395E0FA750C02A9
:100655007D017F02120939E51DFB3395E0FA750C22
:10066500027D047F02120939E51EFB3395E0FA7518
:090675000C027D077F0202093925
:10000E00E518B4020B0517E51775F0068485F01791
:10001E00E518640360030200E874192517F806D387
:10002E00E519648094E34003E4F519D3E51A64807E
:10003E00948C4003751A01E51A64016023E51A6475
:10004E0003601DE51A64056017E51A64076011E583
:10005E001A6408600BE51A640A6005E51AB40C0B05
:10006E00D3E51B6480949F404D8048E51A6404607C
:10007E0011E51A6406600BE51A64096005E51AB409
:10008E000B0BD3E51B6480949E402B8026E51AB49F
:10009E000224E51975F004120453AFF0EF700BD380
:1000AE00E51B6480949D400E8009D3E51B6480940B
:1000BE009C4003751B01D3E51C648094974003E4B8
:1000CE00F51CD3E51D648094BB4003E4F51DD3E518
:1000DE001E648094BB4003E4F51EE51864046003BF
:1000EE000201E674192517F816C3E5196480948089
:1000FE005003751963C3E51A648094815003751A11
:10010E000CE51A64016023E51A6403601DE51A64A8
:10011E00056017E51A64076011E51A6408600BE5BF
:10012E001A640A6005E51AB40C17C3E51B648094C3
:10013E00815003751B1FD3E51B6480949F4075800F
:10014E0070E51A64046011E51A6406600BE51A6422
:10015E00096005E51AB40B17C3E51B648094815042
:10016E0003751B1ED3E51B6480949E40478042E5B9
:10017E001A6402703FE51975F004120453AFF0EFE4
:10018E00701AC3E51B648094815003751B1DD3E563
:10019E001B6480949D4011751B01800CC3E51B648C
:1001AE008094815003751B1CD3E51B6480949C4086
:1001BE0003751B01C3E51C648094805003751C17E6
:1001CE00C3E51D648094805003751D3BC3E51E641A
:1001DE008094805003751E3BE5167013E517700F63
:1001EE007BFF7A0979837D017F011208F88011E582
:1001FE0019FB3395E0FA750C027D017F0112093966
:10020E00E5167014E517B4010F7BFF7A0979837D2B
:10021E00047F011208F88011E51AFB3395E0FA7598
:10022E000C027D047F01120939E5167014E517B42E
:10023E00020F7BFF7A0979837D077F011208F88010
:10024E0011E51BFB3395E0FA750C027D077F011259
:10025E000939E5167014E517B4030F7BFF7A097997
:10026E00837D017F021208F88011E51CFB3395E0B7
:10027E00FA750C027D017F02120939E5167014E53C
:10028E0017B4040F7BFF7A0979837D047F0212086D
:10029E00F88011E51DFB3395E0FA750C027D047FA5
:1002AE0002120939E5167012E517B4050D7BFF7AB7
:1002BE000979837D077F020208F8E51EFB3395E07E
:0C02CE00FA750C027D077F02120939222C
:10073B001209AD1200031209561202DA7BFF7A0975
:10074B0079867D017F011208F87BFF7A09798F7D0D
:10075B00017F021208F812067E8F18E518B40114F7
:10076B00E5157005751501800BE515B40106E4F56B
:10077B00151202DAE5151460080470DA12061580FA
:06078B00D512000E80D023
:03000B0002081BCD
:09081B00C0E0C0D075D000C00798
:10082400758A66758CFC0512E51270020511C39475
:10083400F4E51194014012751100751200E516706B
:09084400047F0180027F008F1681
:07084D00D007D0D0D0E0324B
:0909C8000719170A1E02041201AE
:05000300C2B5C2B622E7
:0506DF002DFDEE3CFCC6
:0606E4008C088D09AB0734
:1006EA00D2B5E4FD74017E00A805088005C333CEA7
:1006FA0033CED8F9FFEBF582EF558224FF92B4D2BC
:10070A00B6C2B60DBD08DDE4FD74017E00A8050879
:10071A008005C333CE33CED8F9FFE5085EFEE5097E
:10072A005F4E24FF92B4D2B6C2B60DBD08DBC2B585
:01073A00229C
:02079100AD07B2
:10079300E4F9430501D2B5FB74017E00A803088088
:1007A30005C333CE33CED8F9FFEDF582EF5582245E
:1007B300FF92B4C2B6D2B60BBB08DDC2B4E4FBD21F
:1007C300B6C2B630B40D7401A803088002C333D88F
:0D07D300FC42010BBB08E8C2B5C2B4AF0187
:0107E00022F6
:1002DA00E4FDFC7F8E1206E4E51975F00A12045358
:1002EA00FF3395E0FEEFC4F8540FC868FFEEC4541C
:1002FA00F048FEE51975F00A120453ADF0ED339596
:10030A00E0FCEF7F8C1206DFE51A75F00A1204533F
:10031A00FF3395E0FEEFC4F8540FC868FFEEC454EB
:10032A00F048FEE51A75F00A120453ADF0ED339564
:10033A00E0FCEF7F881206DFE51B75F00A12045312
:10034A00FF3395E0FEEFC4F8540FC868FFEEC454BB
:10035A00F048FEE51B75F00A120453ADF0ED339533
:10036A00E0FCEF2DFDEE3CFC7F861206E4E51C75F1
:10037A00F00A120453FF3395E0FEEFC4F8540FC895
:10038A0068FFEEC454F048FEE51C75F00A120453E7
:10039A00ADF0ED3395E0FCEF2DFDEE3CFC7F8412D1
:1003AA0006E4E51D75F00A120453FF3395E0FEEFEB
:1003BA00C4F8540FC868FFEEC454F048FEE51D7532
:1003CA00F00A120453ADF0ED3395E0FCEF2DFDEE8B
:1003DA003CFC7F821206E4E51E75F00A120453FF04
:1003EA003395E0FEEFC4F8540FC868FFEEC454F02A
:1003FA0048FEE51E75F00A120453ADF0ED3395E0A0
:10040A00FCEF2DFDEE3CFC7F801206E4E51F75F043
:10041A000A120453FF3395E0FEEFC4F8540FC8687C
:10042A00FFEEC454F048FEE51F75F00A120453ADFE
:10043A00F0ED3395E0FCEF2DFDEE3CFC7F8A1206D1
:09044A00E4E4FDFC7F8E0206E4EF
:100595007F8C120791EFC4540F75F00AA4FEEF5437
:1005A5000F2EF5197F88120791EFC4540F75F00AC5
:1005B500A4FEEF540F2EF51A7F86120791EFC4544F
:1005C5000F75F00AA4FEEF540F2EF51B7F8412075A
:1005D50091EFC4540F75F00AA4FEEF540F2EF51CCD
:1005E5007F82120791EFC4540F75F00AA4FEEF54F1
:1005F5000F2EF51D7F80120791EFC4540F75F00A79
:0F060500A4FEEF540F2EF51E7F8A1207918F1F50
:0106140022C3
:0609D200C2A58F80D2A730
:0809D8007F027EC7DEFEDFFC9A
:0109E00022F4
:0A09E100C2A61209D2C2A70209D86B
:10091B00CFCDCFCECCCE1204B47C007D0A1204B462
:04092B00ED2430FF88
:0A092F00D2A61209D2C2A70209D80D
:10096D00AE07BE0104ED148006BE0209ED243F441E
:06097D0080FF1209E122D7
:1009AD007F381209E17F0C1209E17F061209E17F00
:0409BD00010209E149
:0A09EB00AC0312096DAF0402092FDE
:0608F8008B088A09890A41
:1008FE0012096DE4FDAB08AA09A90A8D8275830061
:0C090E00120475FF600612092F0D80E92D
:01091A0022BA
:0C08C5007F0AEA24FFFDE434FFFC7E0003
:0808D1008E0D8F0E8C0F8D10AF
:1008D9007F017E00E4FBEBC39510E50F6480F8749B
:0E08E9008098500AAC0DAD0E1204A20B80E8F0
:0108F70022DE
:040939008A0A8B0B90
:10093D0012096DAA0CEAD39400400D1208C5AC0A39
:08094D00AD0B12091B1A80ED2D
:01095500227F
:1007E10012096DC3EA64809480400B7F2B12092F9C
:1007F1008A258B26800E7F2D12092FC3E49BF526B7
:10080100E49AF525AA24EAD39400400D1208C5AC58
:0908110025AD2612091B1A80ED29
:01081A0022BB
:040854008A298B2A38
:1008580012096DAA2BEAD3940040297F101208C709
:10086800AC29AD2ACFCDCFCECCCE1204B4EF540FE5
:10087800FEC3940AEE5004243080022437FF120984
:040888002F1A80D1D2
:01088C002249
:04088D008A2E8B2FF5
:1008910012096DAA30EAD394004028EA24FFFDE44E
:1008A10034FFFC7F027E001208D1AC2EAD2FCFCDDC
:1008B100CFCECCCE1204B4EF54012430FF12092F55
:0308C1001A80D2C8
:0108C4002211
:10099800EF1FAC0670011E4C600A7D027CC7DCFEAE
:0409A800DDFC80EC06
:0109AC002228
:10067E00E4F50820B1137F14FE12099830B1FD7F06
:10068E00147E0012099875080120B0147F147E00A4
:10069E0012099830B0FD7F147E0012099875080279
:1006AE0020B2147F147E0012099830B2FD7F147EA2
:1006BE000012099875080320B3147F147E001209E6
:1006CE009830B3FD7F147E00120998750804AF08A8
:0106DE0022F9
:100956005389F0438901C28DD28C758A66758CFCE9
:07096600D2A9D2AFC2B922F1
:03000000020509ED
:0C050900787FE4F6D8FD758130020550C3
:10045300C2D530F707B2D563F0FF05F030E70CB231
:10046300D5F4048463F0FF05F080018430D502F4F1
:02047300042261
:10047500BB010CE58229F582E5833AF583E022503C
:1004850006E92582F8E622BBFE06E92582F8E22286
:0D049500E58229F582E5833AF583E49322A0
:1004A200EF8DF0A4A8F0CF8CF0A428CE8DF0A42E6E
:0204B200FE2228
:1004B400BC000BBE0029EF8DF084FFADF022E4CC2C
:1004C400F875F008EF2FFFEE33FEEC33FCEE9DECF5
:1004D400984005FCEE9DFE0FD5F0E9E4CEFD22ED3B
:1004E400F8F5F0EE8420D21CFEADF075F008EF2F85
:1004F400FFED33FD4007985006D5F0F222C398FD76
:050504000FD5F0EA2212
:1005150002073BE493A3F8E493A34003F68001F2BA
:1005250008DFF48029E493A3F85407240CC8C333E7
:10053500C4540F4420C8834004F456800146F6DFB6
:10054500E4800B01020408102040809009C1E47E7C
:10055500019360BCA3FF543F30E509541FFEE493AB
:10056500A360010ECF54C025E060A840B8E493A372
:10057500FAE493A3F8E493A3C8C582C8CAC583CA9D
:10058500F0A3C8C582C8CAC583CADFE9DEE780BE55
:0109D1000025
:00000001FF
