:10017500E4F508F5091202240509E50970020508E8
:10018500750E03FBAA087D017F011201DC7FE87E65
:060195000312020F80E2DC
:06023800C2A58F80D2A7D1
:08023E007F027EC7DEFEDFFC3B
:010246002295
:0A025300C2A6120238C2A702023E42
:1001BE00CFCDCFCECCCE1200427C007D0A120042B3
:0401CE00ED2430FFED
:0A01D200D2A6120238C2A702023EB4
:1001F900AE07BE0104ED148006BE0209ED243F449A
:0602090080FF12025322E7
:100224007F381202537F0C1202537F061202537F4F
:04023400010202536E
:0A025D00AC031201F9AF040201D254
:06019B008B248A25892651
:1001A1001201F9E4FDAB24AA25A9268D82758300ED
:0C01B100120003FF60061201D20D80E96D
:0101BD00221F
:0C0142007F0AEA24FFFDE434FFFC7E008D
:08014E008E0F8F108C118D1231
:100156007F017E00E4FBEBC39512E5116480F87421
:0E0166008098500AAC0FAD101200300B80E8EC
:010174002268
:0401DC008A0C8B0DF1
:1001E0001201F9AA0EEAD39400400D120142AC0CA0
:0801F000AD0D1201BE1A80EDF5
:0101F80022E4
:100097001201F9C3EA64809480400B7F2B1201D2CE
:1000A7008A188B19800E7F2D1201D2C3E49BF51994
:1000B700E49AF518AA17EAD39400400D120142AC4E
:0900C70018AD191201BE1A80EDFA
:0100D000220D
:0400D1008A1C8B1DDD
:1000D5001201F9AA1EEAD3940040297F10120144A7
:1000E500AC1CAD1DCFCDCFCECCCE120042EF540F00
:1000F500FEC3940AEE5004243080022437FF120117
:04010500D21A80D1B9
:0101090022D3
:04010A008A218B2299
:10010E001201F9AA23EAD394004028EA24FFFDE461
:10011E0034FFFC7F027E0012014EAC21AD22CFCD0A
:10012E00CFCECCCE120042EF54012430FF1201D2BA
:03013E001A80D252
:01014100229B
:10020F00EF1FAC0670011E4C600A7D027CC7DCFE3E
:04021F00DDFC80EC96
:0102230022B8
:03000000020247B2
:0C024700787FE4F6D8FD75812602017571
:10000300BB010CE58229F582E5833AF583E02250B2
:1000130006E92582F8E622BBFE06E92582F8E222FC
:0D002300E58229F582E5833AF583E4932216
:10003000EF8DF0A4A8F0CF8CF0A428CE8DF0A42EE4
:02004000FE229E
:10004200BC000BBE0029EF8DF084FFADF022E4CCA2
:10005200F875F008EF2FFFEE33FEEC33FCEE9DEC6B
:10006200984005FCEE9DFE0FD5F0E9E4CEFD22EDB1
:10007200F8F5F0EE8420D21CFEADF075F008EF2FFB
:10008200FFED33FD4007985006D5F0F222C398FDEC
:050092000FD5F0EA2289
:00000001FF
