:0301F900011400EE
:100168001201CD120107EF64017023051453140323
:10017800E5147002F512E514B40103751232E514A2
:10018800B4020375124BE514B40303751264E51445
:0A019800FD7C007F0112009A80C96F
:03000B000201A24D
:1001A200C0E0C0F0C0D0758AA4758CFF0513E513BA
:1001B20075F0648485F013E513C395125004D29050
:0B01C2008002C290D0D0D0F0D0E0321C
:1001E400EF1FAC0670011E4C600A7D027CC7DCFE6A
:0401F400DDFC80ECC2
:0101F80022E4
:1001CD005389F0438901C28DD28C758AA4758CFF39
:0701DD00D2A9D2AFC2B92282
:10010700E4F51520B1137F14FE1201E430B1FD7F31
:10011700147E001201E475150120B0147F147E00CF
:100127001201E430B0FD7F147E001201E475150260
:1001370020B2147F147E001201E430B2FD7F147EDA
:10014700001201E475150320B3147F147E00120119
:10015700E430B3FD7F147E001201E4751504AF157A
:010167002275
:0C01FC000A083F065B4F666D7D077F6FB1
:10009A00EF14B4080050549000AF75F003A4C58360
:1000AA0025F0C583730200C70200CB0200CF02000D
:1000BA00D30200D70200DF0200E70200EFD2A480D9
:1000CA000ED2A48012D2A48016D2A4801AC2A4D2BC
:1000DA00A3D2A28016C2A4D2A3C2A2800EC2A4C274
:1000EA00A3D2A28006C2A4C2A3C2A274082DF8E6B3
:0D00FA00F5807F017E001201E4E4F5802214
:0300000002000EED
:0C000E00787FE4F6D8FD758115020055DE
:10001A00020168E493A3F8E493A34003F68001F293
:10002A0008DFF48029E493A3F85407240CC8C333E7
:10003A00C4540F4420C8834004F456800146F6DFB6
:10004A00E4800B01020408102040809001F9E47E4C
:10005A00019360BCA3FF543F30E509541FFEE493AB
:10006A00A360010ECF54C025E060A840B8E493A372
:10007A00FAE493A3F8E493A3C8C582C8CAC583CA9D
:10008A00F0A3C8C582C8CAC583CADFE9DEE780BE55
:0102080000F5
:00000001FF
