:1004C4004144442020434F4D20204E554D003030B0
:0C04D4002020203030202020303030006C
:1003130012050B12059D7BFF7A0479C47D017F01D1
:100323001204667BFF7A0479D27D017F0212046690
:1003330012053EEF700612054BEF60F41205A38F12
:10034300301205A68F2FE530FB7A007518027D0168
:100353007F021203C2E52FFB7A007518027D067F28
:10036300021203C2E52FB41804152E8007E52FB43B
:100373005E02052EE52EFB7A007518037D0B7F02C6
:050383001203C280AB73
:1004F600EF1FAC0670011E4C600A7D027CC7DCFE55
:04050600DDFC80ECAC
:01050A0022CE
:06052F00C2A58F80D2A7D7
:080535007F027EC7DEFEDFFC41
:01053D00229B
:0A057A00C2A612052FC2A702053524
:10048900CFCDCFCECCCE1202B07C007D0A1202B005
:04049900ED2430FF1F
:0A049D00D2A612052FC2A7020535F2
:1004E000AE07BE0104ED148006BE0209ED243F44B0
:0604F00080FF12057A22D4
:10050B007F3812057A7F0C12057A7F0612057A7FE7
:04051B000102057A5A
:0A058400AC031204E0AF0402049D72
:060466008B148A158916B3
:10046C001204E0E4FDAB14AA15A9168D8275830065
:0C047C00120271FF600612049D0D80E961
:010488002251
:0C0433007F0AEA24FFFDE434FFFC7E0099
:08043F008E198F1A8C1B8D1C15
:100447007F017E00E4FBEBC3951CE51B6480F87419
:0E0457008098500AAC19AD1A12029E0B80E874
:010465002274
:0404A7008A268B27EF
:1004AB001204E0AA28EAD39400400D120433AC26C0
:0804BB00AD271204891A80ED3F
:0104C3002216
:100388001204E0C3EA64809480400B7F2B12049D22
:100398008A228B23800E7F2D12049DC3E49BF523B4
:1003A800E49AF522AA21EAD39400400D120433AC52
:0903B80022AD231204891A80ED24
:0103C1002219
:0403C2008A168B17F5
:1003C6001204E0AA18EAD3940040297F10120435DB
:1003D600AC16AD17CFCDCFCECCCE1202B0EF540FA8
:1003E600FEC3940AEE5004243080022437FF120420
:0403F6009D1A80D1FB
:0103FA0022E0
:0403FB008A2B8B2C92
:1003FF001204E0AA2DEAD394004028EA24FFFDE47A
:10040F0034FFFC7F027E0012043FAC2BAD2CCFCD0E
:10041F00CFCECCCE1202B0EF54012430FF12049D88
:03042F001A80D25E
:0104320022A7
:0B056400D288C289D2A8D2B8D2AF2240
:10051F005389F0438901C28DE4F58AF58CC28C2290
:0B056F00AD07AC068C8CAF058F8A2214
:09058E00AF8CEFFEAD8AEDFF22F7
:06059700EF24FF928C220C
:06059D0012056402051FB7
:0D053E00E50F6006E4F50F7F01227F00222B
:0D054B00E50D6006E4F50D7F01227F002222
:0305A300AF0C2278
:0305A600AF0B2276
:03000300020006F2
:10000600C0E0C0F0C083C082C0D075D000C000C0C0
:1000160001C002C003C004C005C006C007E50870E1
:100026000DFFFE12056F7F011205970200B6E50867
:10003600640160030200BC12058E8E098F0AE4FF7C
:10004600FE12056FAC09AD0AE41202387BFF7A7F17
:10005600793B78461201BA501DAC09AD0AE412028A
:10006600387BFF7A1F794B78461201BA6008400642
:1000760075080202019FAC09AD0AE41202387BAA98
:100086007AF2791A78461201BA5025AC09AD0AE41B
:100096001202387BAA7A92792A78461201BA60103F
:1000A600400EE4FF120597750800750D0102019FC9
:1000B60075080102019FE5086402600302019F12B0
:1000C600058E8E098F0AE4FFFE12056FAC09AD0A94
:1000D600E41202387B5E7A42795178441201BA50B2
:1000E60039AC09AD0AE41202387B2F7AA1799A78E5
:1000F600441201BA60244022E50E131313541F2440
:1001060010F8C000E6FFE50E5407FE7401A80608C5
:100116008002C333D8FCF45F804BAC09AD0AE4120D
:1001260002387BAA7A6A79EB78441201BA503DAC60
:1001360009AD0AE41202387B557AB5790E78451274
:1001460001BA60284026E50E131313541F2410F835
:10015600C000E6FFE50E5407FE7401A806088002FB
:10016600C333D8FC4FD000F6050E8006750E007519
:100176000801E50EC394204020750E00E511F4B584
:10018600100FE513F4B5120985100C85120B750FC7
:1001960001E4FF120597750800D007D006D005D0F8
:1001A60004D003D002D001D000D0D0D082D083D0EA
:0401B600F0D0E03273
:1001BA0074F8CC6480CCC86480C8F58204604FC3EC
:1001CA00EB9FF5F0EA9E42F0E99D42F0E89C45F08B
:1001DA00603C501DE5825FFFE582D313CB5BCBF415
:1001EA002B5582FB50280ABA002409B9002008803E
:1001FA001DE5825BFBE582D313CF5FCFF4C3132FD8
:10020A005582FF50090EBE00050DBD00010CC3EB5F
:10021A009FF5F0EA9E42F0E99D42F0E89C45F060C5
:09022A0007CC4820E701B3EC22E7
:1002330075F020800E75F010800575F0087D007E46
:10024300007F003392D530D503120305EC33401001
:10025300EF33FFEE33FEED33FDEC33FCD5F0ED224F
:0E026300E5F0247EA2D513CC92E7CDCEFF228B
:030000000205589E
:0C055800787FE4F6D8FD758130020313B3
:10027100BB010CE58229F582E5833AF583E0225042
:1002810006E92582F8E622BBFE06E92582F8E2228C
:0D029100E58229F582E5833AF583E49322A6
:10029E00EF8DF0A4A8F0CF8CF0A428CE8DF0A42E74
:0202AE00FE222E
:1002B000BC000BBE0029EF8DF084FFADF022E4CC32
:1002C000F875F008EF2FFFEE33FEEC33FCEE9DECFB
:1002D000984005FCEE9DFE0FD5F0E9E4CEFD22ED41
:1002E000F8F5F0EE8420D21CFEADF075F008EF2F8B
:1002F000FFED33FD4007985006D5F0F222C398FD7C
:050300000FD5F0EA2218
:0E030500C3E49FFFE49EFEE49DFDE49CFC2209
:00000001FF
