:1005360020202D20202D20200020203A20203A2087
:02054600200093
:10020C001205221205751200037BFF7A0579367DE3
:10021C00017F011204997BFF7A05793F7D017F02F2
:10022C0012049912028EE511FB7A00750C027D0105
:10023C007F011204DAE512FB7A00750C027D047F53
:10024C00011204DAE513FB7A00750C027D077F01BD
:10025C001204DAE514FB7A00750C027D017F0212A0
:10026C0004DAE515FB7A00750C027D047F0212049A
:10027C00DAE516FB7A00750C027D077F021204DAB0
:02028C0080A14F
:090557000711170A1E020412012B
:05057500C2B5C2B62270
:06030E0025F0FDEC3EFCB1
:060314008C088D09AB0707
:10031A00D2B5E4FD74017E00A805088005C333CE7A
:10032A0033CED8F9FFEBF582EF558224FF92B4D28F
:10033A00B6C2B60DBD08DDE4FD74017E00A805084D
:10034A008005C333CE33CED8F9FFE5085EFEE50952
:10035A005F4E24FF92B4D2B6C2B60DBD08DBC2B559
:01036A002270
:02036B00AD07DC
:10036D00E4F9430501D2B5FB74017E00A8030880B2
:10037D0005C333CE33CED8F9FFEDF582EF55822488
:10038D00FF92B4C2B6D2B60BBB08DDC2B4E4FBD249
:10039D00B6C2B630B40D7401A803088002C333D8B9
:0D03AD00FC42010BBB08E8C2B5C2B4AF01B1
:0103BA002220
:10000300E4FDFC7F8E120314E51175F00A8475F08C
:1000130010A4FFAEF0E51175F00A84EF7F8C120394
:100023000EE51275F00A8475F010A4FFAEF0E51228
:1000330075F00A847C00EF7F8812030EE51375F0D8
:100043000A8475F010A4FFAEF0E51375F00A847C02
:1000530000EF25F0FDEC3EFC7F86120314E51475DA
:10006300F00A8475F010A4FFAEF0E51475F00A846D
:100073007C00EF25F0FDEC3EFC7F84120314E515B4
:1000830075F00A8475F010A4FFAEF0E51575F00A5B
:10009300847C00EF25F0FDEC3EFC7F82120314E527
:1000A3001675F00A8475F010A4FFAEF0E51675F02E
:1000B3000A847C00EF25F0FDEC3EFC7F80120314E4
:1000C300E51775F00A8475F010A4FFAEF0E5177517
:1000D300F00A847C00EF25F0FDEC3EFC7F8A1203DE
:0900E30014E4FDFC7F8E020314FD
:10028E007F8C12036BEFC4540F75F00AA4FEEF546B
:10029E000F2EF5117F8812036BEFC4540F75F00A01
:1002AE00A4FEEF540F2EF5127F8612036BEFC4548B
:1002BE000F75F00AA4FEEF540F2EF5137F84120370
:1002CE006BEFC4540F75F00AA4FEEF540F2EF51405
:1002DE007F8212036BEFC4540F75F00AA4FEEF5425
:1002EE000F2EF5157F8012036BEFC4540F75F00AB5
:0F02FE00A4FEEF540F2EF5167F8A12036B8F1795
:01030D0022CD
:06054800C2A58F80D2A7BE
:08054E007F027EC7DEFEDFFC28
:010556002282
:0A056100C2A6120548C2A702054E0B
:1004BC00CFCDCFCECCCE12012B7C007D0A12012BDE
:0404CC00ED2430FFEC
:0A04D000D2A6120548C2A702054E8D
:1004F700AE07BE0104ED148006BE0209ED243F4499
:0605070080FF12056122D5
:100522007F381205617F0C1205617F061205617F1B
:04053200010205615C
:0A056B00AC031204F7AF040204D041
:060499008B088A09890AA4
:10049F001204F7E4FDAB08AA09A90A8D827583003F
:0C04AF001200ECFF60061204D00D80E982
:0104BB00221E
:0C0466007F0AEA24FFFDE434FFFC7E0066
:080472008E0D8F0E8C0F8D1012
:10047A007F017E00E4FBEBC39510E50F6480F874FE
:0E048A008098500AAC0DAD0E1201190B80E8DF
:010498002241
:0404DA008A0A8B0BF4
:1004DE001204F7AA0CEAD39400400D120466AC0A7B
:0804EE00AD0B1204BC1A80EDF5
:0104F60022E3
:1003BB001204F7C3EA64809480400B7F2B1204D0A5
:1003CB008A1D8B1E800E7F2D1204D0C3E49BF51E5D
:1003DB00E49AF51DAA1CEAD39400400D120466ACF6
:0903EB001DAD1E1204BC1A80EDC8
:0103F40022E6
:0403F5008A218B22AC
:1003F9001204F7AA23EAD3940040297F1012046853
:10040900AC21AD22CFCDCFCECCCE12012BEF540FE4
:10041900FEC3940AEE5004243080022437FF1204EC
:04042900D01A80D194
:01042D0022AC
:04042E008A268B2768
:100432001204F7AA28EAD394004028EA24FFFDE434
:1004420034FFFC7F027E00120472AC26AD27CFCDB2
:10045200CFCECCCE12012BEF54012430FF1204D0A8
:030462001A80D22B
:010465002274
:10050D00EF1FAC0670011E4C600A7D027CC7DCFE3D
:04051D00DDFC80EC95
:0105210022B7
:030000000201807A
:0C018000787FE4F6D8FD75812A0201C7E3
:1000EC00BB010CE58229F582E5833AF583E02250C9
:1000FC0006E92582F8E622BBFE06E92582F8E22213
:0D010C00E58229F582E5833AF583E493222C
:10011900EF8DF0A4A8F0CF8CF0A428CE8DF0A42EFA
:02012900FE22B4
:10012B00BC000BBE0029EF8DF084FFADF022E4CCB8
:10013B00F875F008EF2FFFEE33FEEC33FCEE9DEC81
:10014B00984005FCEE9DFE0FD5F0E9E4CEFD22EDC7
:10015B00F8F5F0EE8420D21CFEADF075F008EF2F11
:10016B00FFED33FD4007985006D5F0F222C398FD02
:05017B000FD5F0EA229F
:10018C0002020CE493A3F8E493A34003F68001F27B
:10019C0008DFF48029E493A3F85407240CC8C33374
:1001AC00C4540F4420C8834004F456800146F6DF43
:1001BC00E4800B0102040810204080900557E47E77
:1001CC00019360BCA3FF543F30E509541FFEE49338
:1001DC00A360010ECF54C025E060A840B8E493A3FF
:1001EC00FAE493A3F8E493A3C8C582C8CAC583CA2A
:1001FC00F0A3C8C582C8CAC583CADFE9DEE780BEE2
:01056000009A
:00000001FF
