:0F02E500012B000221000002230000022500006F
:10033D00E52B6022052AE52AC3946440190527E4BC
:10034D00F52AE527943C400E0529E4F527E5299487
:07035D003C4003E4F52922F6
:10000E001203C112042B8F28E528B4010CE52B70C6
:10001E00047F0180027F008F2BE528B40207E4F5F0
:10002E0029F527F52AE52864037033E529FD7C00C0
:10003E00E4FF1203647F057E001203EEE527FD7CCC
:10004E00007F011203647F057E001203EEE52AFD98
:10005E007C007F021203647F057E001203EEE5280A
:10006E00B40415E4FF1202B28F297F011202B28F7F
:10007E00277F021202B28F2AE52975F00A84FD7CD1
:10008E00007F01120410E52975F00A84E5F0FD7C6D
:10009E00007F021204107D0B7C007F03120410E51A
:1000AE002775F00A84FD7C007F04120410E5277585
:1000BE00F00A84E5F0FD7C007F051204107D0B7CB8
:1000CE00007F06120410E52A75F00A84FD7C007F7D
:1000DE0007120410E52A75F00A84E5F0FD7C007F16
:0700EE0008120410020011CA
:03000B000200F5FB
:1000F500C0E0C0F0C083C082C0D075D000C000C0D1
:0D01050001C002C003C004C005C006C00751
:10011200758A66758CFC0522E5227002052105248C
:10012200E524700205230526E52670020525C3E5B0
:10013200229414E5219400400975210075220012D1
:100142000279C3E5249402E5239400400975230053
:100152007524001203A6C3E526940AE525940040FF
:0A0162000975250075260012033D03
:10016C00D007D006D005D004D003D002D001D000E7
:0B017C00D0D0D082D083D0F0D0E03291
:1003EE00EF1FAC0670011E4C600A7D027CC7DCFE5E
:0403FE00DDFC80ECB6
:0104020022D7
:1002F4000909000A0A0A0A0A0A0A0A0C123F065BDA
:0C0304004F666D7D077F6F00400108010F
:09041000AE0574092FF8A60622BE
:10021300E4F580EF14B40800505490022B75F003FA
:10022300A4C58325F0C58373020243020247020279
:100233004B02024F02025302025B02026302026B91
:10024300D2A4800ED2A48012D2A48016D2A4801A83
:10025300C2A4D2A3D2A28016C2A4D2A3C2A2800EE9
:10026300C2A4C2A3D2A28006C2A4C2A3C2A2741211
:060273002DF8E6F58022E3
:1003A60074092508F8E6FD7C00AF0812021305085B
:0A03B600E508D3940940037508011F
:0103C000221A
:1003C1005389F0438901C28DD28C758A66758CFC84
:0703D100D2A9D2AFC2B9228C
:03031000012E00BB
:1003D800E4FF20B1010F20B0027F0220B2027F03A8
:0503E80020B3027F04B8
:0103ED0022ED
:10027900852C2D1203D88F2CE52DB40107E52C70A0
:1002890003752E01E52DB40207E52C7003752E02C6
:10029900E52DB40307E52C7003752E03E52DB40491
:0802A90007E52C7003752E041B
:0102B100222A
:05042B00AF2EE4F52EE8
:0104300022A9
:100364008F2F8C308D311204197FA01203141204C4
:1003740003AF2F120314120403AF31120314120437
:04038400030200036D
:0202B2008F2F8C
:1002B4001204197FA0120314120403AF2F120314A3
:1002C4001204031204197FA112031412040312036B
:1002D400887530008F31D200120422120003AF312E
:0102E40022F7
:09041900D2A0D2A1C2A0C2A1220E
:07000300C2A0D2A1D2A0228D
:02031400AD0733
:10031600E4FB74807E00A803088006CEA2E713CE15
:1003260013D8F8FFEDF582EF558224FF92A0D2A1F3
:06033600C2A10BBB08DCB4
:01033C00229E
:10038800E4FFD2A0FED2A130A00D7480A806088098
:0D03980002C313D8FC4207C2A10EBE08E844
:0103A5002235
:09042200A20092A0D2A1C2A12205
:0C040300D2A0D2A1A2A09200C2A1A2002F
:01040F0022CA
:0300000002018773
:0C018700787FE4F6D8FD7581310201CECE
:1001930002000EE493A3F8E493A34003F68001F274
:1001A30008DFF48029E493A3F85407240CC8C3336D
:1001B300C4540F4420C8834004F456800146F6DF3C
:1001C300E4800B01020408102040809002E5E47EE5
:1001D300019360BCA3FF543F30E509541FFEE49331
:1001E300A360010ECF54C025E060A840B8E493A3F8
:1001F300FAE493A3F8E493A3C8C582C8CAC583CA23
:10020300F0A3C8C582C8CAC583CADFE9DEE780BEDA
:0103130000E9
:00000001FF
