:0401EC0002120000FB
:050003001201C080FEA7
:03000B0002016887
:10016800C0E0C0F0C083C082C0D075D000C000C05D
:0D01780001C002C003C004C005C006C007DE
:10018500758A66758CFC0513E51370020512C39418
:10019500E8E5129403400975120075130012000872
:1001A500D007D006D005D004D003D002D001D000AE
:0B01B500D0D0D082D083D0F0D0E03258
:1001D700EF1FAC0670011E4C600A7D027CC7DCFE77
:0401E700DDFC80ECCF
:0101EB0022F1
:0C01F0000A083F065B4F666D7D077F6FBD
:10009A00EF14B4080050549000AF75F003A4C58360
:1000AA0025F0C583730200C70200CB0200CF02000D
:1000BA00D30200D70200DF0200E70200EFD2A480D9
:1000CA000ED2A48012D2A48016D2A4801AC2A4D2BC
:1000DA00A3D2A28016C2A4D2A3C2A2800EC2A4C274
:1000EA00A3D2A28006C2A4C2A3C2A274082DF8E6B3
:0D00FA00F5807F017E001201D7E4F5802221
:1001C0005389F0438901C28DD28C758A66758CFC87
:0701D000D2A9D2AFC2B9228F
:10010700E4F51420B1137F14FE1201D730B1FD7F3F
:10011700147E001201D775140120B0147F147E00DD
:100127001201D730B0FD7F147E001201D77514027B
:1001370020B2147F147E001201D730B2FD7F147EE7
:10014700001201D775140320B3147F147E00120127
:10015700D730B3FD7F147E001201D7751404AF1496
:010167002275
:0100080022D5
:0300000002000EED
:0C000E00787FE4F6D8FD758114020055DF
:10001A00020003E493A3F8E493A34003F68001F2F9
:10002A0008DFF48029E493A3F85407240CC8C333E7
:10003A00C4540F4420C8834004F456800146F6DFB6
:10004A00E4800B01020408102040809001ECE47E59
:10005A00019360BCA3FF543F30E509541FFEE493AB
:10006A00A360010ECF54C025E060A840B8E493A372
:10007A00FAE493A3F8E493A3C8C582C8CAC583CA9D
:10008A00F0A3C8C582C8CAC583CADFE9DEE780BE55
:0101FC000002
:00000001FF
