:1003900012048A12047812043FEF60381204878F27
:1003A0001EE51EB41607E4F51FFF12048DE51EB40A
:1003B0000C08751F017F3212048DE51EB4180875F4
:1003C0001F027F4B12048DE51EB45E08751F037F6C
:1003D0006412048DE51FFD7C007F0112032380B6AB
:10000600EF1FAC0670011E4C600A7D027CC7DCFE49
:04001600DDFC80ECA1
:01001A0022C3
:0C0432000A143F065B4F666D7D077F6F6C
:10032300EF14B40800505490033875F003A4C58348
:1003330025F0C583730203500203540203580203DA
:100343005C020360020368020370020378D2A48094
:100353000ED2A48012D2A48016D2A4801AC2A4D230
:10036300A3D2A28016C2A4D2A3C2A2800EC2A4C2E8
:10037300A3D2A28006C2A4C2A3C2A274142DF8E61B
:0D038300F5807F017E00120006E4F5802267
:10040B0053890F438910C28FD28E758BA4758DFFC4
:07041B00D2ABD2AFC2BB223D
:0B045900D288C289D2A8D2B8D2AF224C
:06047800120459020422E7
:0D043F00E50F6006E4F50F7F01227F00222B
:0D044C00E50D6006E4F50D7F01227F002222
:03048400AF0C2298
:03048700AF0B2296
:0300030002001EDA
:10001E00C0E0C0F0C083C082C0D075D000C000C0A8
:10002E0001C002C003C004C005C006C007E50870C9
:10003E000DFFFE1204647F0112047E0200CEE5085D
:10004E00640160030200D412046F8E098F0AE4FF6C
:10005E00FE120464AC09AD0AE41202507BFF7A7FF3
:10006E00793B78461201D2501DAC09AD0AE412025A
:10007E00507BFF7A1F794B78461201D260084006FA
:10008E007508020201B7AC09AD0AE41202507BAA50
:10009E007AF2791A78461201D25025AC09AD0AE4EB
:1000AE001202507BAA7A92792A78461201D26010F7
:1000BE00400EE4FF12047E750800750D010201B7B3
:1000CE007508010201B7E508640260030201B71268
:1000DE00046F8E098F0AE4FFFE120464AC09AD0AA8
:1000EE00E41202507B5E7A42795178441201D2506A
:1000FE0039AC09AD0AE41202507B2F7AA1799A78B5
:10010E00441201D260244022E50E131313541F240F
:10011E0010F8C000E6FFE50E5407FE7401A80608AD
:10012E008002C333D8FCF45F804BAC09AD0AE412F5
:10013E0002507BAA7A6A79EB78441201D2503DAC18
:10014E0009AD0AE41202507B557AB5790E78451244
:10015E0001D260284026E50E131313541F2410F805
:10016E00C000E6FFE50E5407FE7401A806088002E3
:10017E00C333D8FC4FD000F6050E8006750E007501
:10018E000801E50EC394204020750E00E511F4B56C
:10019E00100FE513F4B5120985100C85120B750FAF
:1001AE0001E4FF12047E750800D007D006D005D0FA
:1001BE0004D003D002D001D000D0D0D082D083D0D2
:0401CE00F0D0E0325B
:100422005389F0438901C28DE4F58AF58CC28C228E
:0B046400AD07AC068C8CAF058F8A2220
:09046F00AF8CEFFEAD8AEDFF2217
:06047E00EF24FF928C2226
:03048A0002040B5E
:03048D008F20229B
:03001B000203E0FD
:1003E000C0E0C0F0C0D0758BA4758DFF0521E5215C
:1003F00075F0648485F021E521C395205004D290E6
:0B0400008002C290D0D0D0F0D0E032DB
:1001D20074F8CC6480CCC86480C8F58204604FC3D4
:1001E200EB9FF5F0EA9E42F0E99D42F0E89C45F073
:1001F200603C501DE5825FFFE582D313CB5BCBF4FD
:100202002B5582FB50280ABA002409B90020088025
:100212001DE5825BFBE582D313CF5FCFF4C3132FBF
:100222005582FF50090EBE00050DBD00010CC3EB47
:100232009FF5F0EA9E42F0E99D42F0E89C45F060AD
:0902420007CC4820E701B3EC22CF
:10024B0075F020800E75F010800575F0087D007E2E
:10025B00007F003392D530D503120289EC33401066
:10026B00EF33FFEE33FEED33FDEC33FCD5F0ED2237
:0E027B00E5F0247EA2D513CC92E7CDCEFF2273
:0300000002029762
:0C029700787FE4F6D8FD7581210202DEBC
:0E028900C3E49FFFE49EFEE49DFDE49CFC2286
:1002A300020390E493A3F8E493A34003F68001F2DE
:1002B30008DFF48029E493A3F85407240CC8C3335C
:1002C300C4540F4420C8834004F456800146F6DF2B
:1002D300E4800B0102040810204080900432E47E85
:1002E300019360BCA3FF543F30E509541FFEE49320
:1002F300A360010ECF54C025E060A840B8E493A3E7
:10030300FAE493A3F8E493A3C8C582C8CAC583CA11
:10031300F0A3C8C582C8CAC583CADFE9DEE780BEC9
:01043E0000BD
:00000001FF
