:1000C30075A0FE1200F812000E8F0AE50A60F7B45D
:1000D300010C050BE50BC394024003E4F50BE50AA1
:1000E300B40202B2A2E50AB40302B2A3E50AB4045D
:0500F300D5B2A480D18C
:03000B0002006F81
:0B006F00C0E0C0D075D000C000C0078A
:10007A00758A66758CFC0509E50970020508C39442
:10008A00F4E50894014029750800750900E50B702C
:10009A000DAFA07801EF08800123D8FDF5A0E50B8C
:1000AA00B4010DAFA07801EF08800103D8FDF5A0D7
:0900BA00D007D000D0D0D0E03214
:1000F8005389F0438901C28DD28C758A66758CFC50
:07010800D2A9D2AFC2B92257
:10000E00E4F50C20B1137F14FE12010F30B1FD7F09
:10001E00147E0012010F750C0120B0147F147E00A7
:10002E0012010F30B0FD7F147E0012010F750C020D
:10003E0020B2147F147E0012010F30B2FD7F147EA9
:10004E000012010F750C0320B3147F147E001201F1
:10005E000F30B3FD7F147E0012010F750C04AF0C30
:01006E00226F
:10010F00EF1FAC0670011E4C600B007D027CC7DC3C
:05011F00FEDDFC80EB99
:0101240022B8
:03000000020125D5
:0C012500787FE4F6D8FD75810C0200C361
:00000001FF
