:0E02F80041444A20204E54432020205247000B
:100110001202D57BFF7A0279F87D017F0112024C31
:100120007F9C1200978E228F23750C04AB23AA228A
:100130007D017F0212028D7FDC1200978E228F23B9
:10014000750C03AB23AA227D067F0212028D7FACC1
:100150001200978E228F23750C03AB23AA227D0BEE
:0E0160007F0212028D7F0A7E001202C080B262
:1002C000EF1FAC0670011E4C600A7D027CC7DCFE8D
:0402D000DDFC80ECE5
:0102D4002207
:0602E900C2A58F80D2A720
:0802EF007F027EC7DEFEDFFC8A
:0102F70022E4
:0A031200C2A61202E9C2A70202EF20
:10026F00CFCDCFCECCCE1200427C007D0A12004201
:04027F00ED2430FF3B
:0A028300D2A61202E9C2A70202EFA0
:1002AA00AE07BE0104ED148006BE0209ED243F44E8
:0602BA0080FF1203122276
:1002D5007F381203127F0C1203127F061203127F5E
:0402E50001020312FD
:0A031C00AC031202AAAF0402028330
:06024C008B088A09890AF3
:100252001202AAE4FDAB08AA09A90A8D82758300DD
:0C026200120003FF60061202830D80E909
:01026E00226D
:0C0219007F0AEA24FFFDE434FFFC7E00B5
:080225008E0D8F0E8C0F8D1061
:10022D007F017E00E4FBEBC39510E50F6480F8744D
:0E023D008098500AAC0DAD0E1200300B80E818
:01024B002290
:04028D008A0A8B0B43
:100291001202AAAA0CEAD39400400D120219AC0A68
:0802A100AD0B12026F1A80ED93
:0102A9002232
:10016E001202AAC3EA64809480400B7F2B12028392
:10017E008A168B17800E7F2D120283C3E49BF51710
:10018E00E49AF516AA15EAD39400400D120219ACA2
:09019E0016AD1712026F1A80ED74
:0101A7002235
:0401A8008A1A8B1B09
:1001AC001202AAAA1CEAD3940040297F1012021B47
:1001BC00AC1AAD1BCFCDCFCECCCE120042EF540F2C
:1001CC00FEC3940AEE5004243080022437FF12023E
:0401DC00831A80D131
:0101E00022FC
:0401E1008A1F8B20C6
:1001E5001202AAAA21EAD394004028EA24FFFDE4DA
:1001F50034FFFC7F027E00120225AC1FAD20CFCD5F
:10020500CFCECCCE120042EF54012430FF12028330
:030215001A80D27A
:0102180022C3
:020097008F08D0
:10009900C2B5C2B6E4F50974807E00A809088006D5
:1000A900CEA2E713CE13D8F8FFEF550824FF92B478
:1000B900D2B67F017E001202C0C2B60509E509C3A6
:1000C900940840D3E4F509D2B6C2B630B714E47E39
:1000D90080A809088005CEC313CE13D8F9420BEEC8
:1000E900420A0509E509B410DED2B5E50830E30690
:1000F900E50AFF7E0022E50AC4F854F0C868FEE567
:060109000BC4540F48FF77
:01010F0022CD
:03000000020306F2
:0C030600787FE4F6D8FD75812302011019
:10000300BB010CE58229F582E5833AF583E02250B2
:1000130006E92582F8E622BBFE06E92582F8E222FC
:0D002300E58229F582E5833AF583E4932216
:10003000EF8DF0A4A8F0CF8CF0A428CE8DF0A42EE4
:02004000FE229E
:10004200BC000BBE0029EF8DF084FFADF022E4CCA2
:10005200F875F008EF2FFFEE33FEEC33FCEE9DEC6B
:10006200984005FCEE9DFE0FD5F0E9E4CEFD22EDB1
:10007200F8F5F0EE8420D21CFEADF075F008EF2FFB
:10008200FFED33FD4007985006D5F0F222C398FDEC
:050092000FD5F0EA2289
:00000001FF
